{
  "_format": "hh-sol-artifact-1",
  "contractName": "NFTMinting",
  "sourceName": "contracts/NFTMinting.sol",
  "abi": [
    {
      "inputs": [],
      "stateMutability": "nonpayable",
      "type": "constructor"
    },
    {
      "anonymous": false,
      "inputs": [
        {
          "indexed": true,
          "internalType": "address",
          "name": "owner",
          "type": "address"
        },
        {
          "indexed": true,
          "internalType": "address",
          "name": "approved",
          "type": "address"
        },
        {
          "indexed": true,
          "internalType": "uint256",
          "name": "tokenId",
          "type": "uint256"
        }
      ],
      "name": "Approval",
      "type": "event"
    },
    {
      "anonymous": false,
      "inputs": [
        {
          "indexed": true,
          "internalType": "address",
          "name": "owner",
          "type": "address"
        },
        {
          "indexed": true,
          "internalType": "address",
          "name": "operator",
          "type": "address"
        },
        {
          "indexed": false,
          "internalType": "bool",
          "name": "approved",
          "type": "bool"
        }
      ],
      "name": "ApprovalForAll",
      "type": "event"
    },
    {
      "anonymous": false,
      "inputs": [
        {
          "indexed": false,
          "internalType": "uint256",
          "name": "_fromTokenId",
          "type": "uint256"
        },
        {
          "indexed": false,
          "internalType": "uint256",
          "name": "_toTokenId",
          "type": "uint256"
        }
      ],
      "name": "BatchMetadataUpdate",
      "type": "event"
    },
    {
      "anonymous": false,
      "inputs": [
        {
          "indexed": false,
          "internalType": "uint256",
          "name": "_tokenId",
          "type": "uint256"
        }
      ],
      "name": "MetadataUpdate",
      "type": "event"
    },
    {
      "anonymous": false,
      "inputs": [
        {
          "indexed": false,
          "internalType": "bool",
          "name": "status",
          "type": "bool"
        }
      ],
      "name": "MintPaused",
      "type": "event"
    },
    {
      "anonymous": false,
      "inputs": [
        {
          "indexed": true,
          "internalType": "address",
          "name": "minter",
          "type": "address"
        },
        {
          "indexed": true,
          "internalType": "uint256",
          "name": "tokenId",
          "type": "uint256"
        },
        {
          "indexed": false,
          "internalType": "string",
          "name": "tokenURI",
          "type": "string"
        }
      ],
      "name": "NFTMinted",
      "type": "event"
    },
    {
      "anonymous": false,
      "inputs": [
        {
          "indexed": true,
          "internalType": "address",
          "name": "from",
          "type": "address"
        },
        {
          "indexed": true,
          "internalType": "address",
          "name": "to",
          "type": "address"
        },
        {
          "indexed": true,
          "internalType": "uint256",
          "name": "tokenId",
          "type": "uint256"
        }
      ],
      "name": "NFTTransferred",
      "type": "event"
    },
    {
      "anonymous": false,
      "inputs": [
        {
          "indexed": true,
          "internalType": "address",
          "name": "previousOwner",
          "type": "address"
        },
        {
          "indexed": true,
          "internalType": "address",
          "name": "newOwner",
          "type": "address"
        }
      ],
      "name": "OwnershipTransferred",
      "type": "event"
    },
    {
      "anonymous": false,
      "inputs": [
        {
          "indexed": false,
          "internalType": "uint256",
          "name": "newPrice",
          "type": "uint256"
        }
      ],
      "name": "PriceUpdated",
      "type": "event"
    },
    {
      "anonymous": false,
      "inputs": [
        {
          "indexed": true,
          "internalType": "address",
          "name": "from",
          "type": "address"
        },
        {
          "indexed": true,
          "internalType": "address",
          "name": "to",
          "type": "address"
        },
        {
          "indexed": true,
          "internalType": "uint256",
          "name": "tokenId",
          "type": "uint256"
        }
      ],
      "name": "Transfer",
      "type": "event"
    },
    {
      "inputs": [
        {
          "internalType": "address",
          "name": "to",
          "type": "address"
        },
        {
          "internalType": "uint256",
          "name": "tokenId",
          "type": "uint256"
        }
      ],
      "name": "approve",
      "outputs": [],
      "stateMutability": "nonpayable",
      "type": "function"
    },
    {
      "inputs": [
        {
          "internalType": "address",
          "name": "owner",
          "type": "address"
        }
      ],
      "name": "balanceOf",
      "outputs": [
        {
          "internalType": "uint256",
          "name": "",
          "type": "uint256"
        }
      ],
      "stateMutability": "view",
      "type": "function"
    },
    {
      "inputs": [
        {
          "internalType": "string[]",
          "name": "tokenURIs",
          "type": "string[]"
        }
      ],
      "name": "batchMintNFT",
      "outputs": [
        {
          "internalType": "uint256[]",
          "name": "",
          "type": "uint256[]"
        }
      ],
      "stateMutability": "payable",
      "type": "function"
    },
    {
      "inputs": [
        {
          "internalType": "uint256",
          "name": "tokenId",
          "type": "uint256"
        }
      ],
      "name": "getApproved",
      "outputs": [
        {
          "internalType": "address",
          "name": "",
          "type": "address"
        }
      ],
      "stateMutability": "view",
      "type": "function"
    },
    {
      "inputs": [
        {
          "internalType": "uint256",
          "name": "tokenId",
          "type": "uint256"
        }
      ],
      "name": "getOwnershipHistory",
      "outputs": [
        {
          "internalType": "address[]",
          "name": "",
          "type": "address[]"
        }
      ],
      "stateMutability": "view",
      "type": "function"
    },
    {
      "inputs": [
        {
          "internalType": "address",
          "name": "user",
          "type": "address"
        }
      ],
      "name": "getUserMintedTokens",
      "outputs": [
        {
          "internalType": "uint256[]",
          "name": "",
          "type": "uint256[]"
        }
      ],
      "stateMutability": "view",
      "type": "function"
    },
    {
      "inputs": [
        {
          "internalType": "address",
          "name": "user",
          "type": "address"
        }
      ],
      "name": "getUserOwnedTokens",
      "outputs": [
        {
          "internalType": "uint256[]",
          "name": "",
          "type": "uint256[]"
        }
      ],
      "stateMutability": "view",
      "type": "function"
    },
    {
      "inputs": [
        {
          "internalType": "address",
          "name": "owner",
          "type": "address"
        },
        {
          "internalType": "address",
          "name": "operator",
          "type": "address"
        }
      ],
      "name": "isApprovedForAll",
      "outputs": [
        {
          "internalType": "bool",
          "name": "",
          "type": "bool"
        }
      ],
      "stateMutability": "view",
      "type": "function"
    },
    {
      "inputs": [],
      "name": "maxSupply",
      "outputs": [
        {
          "internalType": "uint256",
          "name": "",
          "type": "uint256"
        }
      ],
      "stateMutability": "view",
      "type": "function"
    },
    {
      "inputs": [
        {
          "internalType": "string",
          "name": "tokenURI",
          "type": "string"
        }
      ],
      "name": "mintNFT",
      "outputs": [
        {
          "internalType": "uint256",
          "name": "",
          "type": "uint256"
        }
      ],
      "stateMutability": "payable",
      "type": "function"
    },
    {
      "inputs": [],
      "name": "mintPrice",
      "outputs": [
        {
          "internalType": "uint256",
          "name": "",
          "type": "uint256"
        }
      ],
      "stateMutability": "view",
      "type": "function"
    },
    {
      "inputs": [],
      "name": "name",
      "outputs": [
        {
          "internalType": "string",
          "name": "",
          "type": "string"
        }
      ],
      "stateMutability": "view",
      "type": "function"
    },
    {
      "inputs": [],
      "name": "owner",
      "outputs": [
        {
          "internalType": "address",
          "name": "",
          "type": "address"
        }
      ],
      "stateMutability": "view",
      "type": "function"
    },
    {
      "inputs": [
        {
          "internalType": "uint256",
          "name": "tokenId",
          "type": "uint256"
        }
      ],
      "name": "ownerOf",
      "outputs": [
        {
          "internalType": "address",
          "name": "",
          "type": "address"
        }
      ],
      "stateMutability": "view",
      "type": "function"
    },
    {
      "inputs": [
        {
          "internalType": "bool",
          "name": "_pause",
          "type": "bool"
        }
      ],
      "name": "pauseMinting",
      "outputs": [],
      "stateMutability": "nonpayable",
      "type": "function"
    },
    {
      "inputs": [],
      "name": "pausedMint",
      "outputs": [
        {
          "internalType": "bool",
          "name": "",
          "type": "bool"
        }
      ],
      "stateMutability": "view",
      "type": "function"
    },
    {
      "inputs": [],
      "name": "renounceOwnership",
      "outputs": [],
      "stateMutability": "nonpayable",
      "type": "function"
    },
    {
      "inputs": [
        {
          "internalType": "address",
          "name": "from",
          "type": "address"
        },
        {
          "internalType": "address",
          "name": "to",
          "type": "address"
        },
        {
          "internalType": "uint256",
          "name": "tokenId",
          "type": "uint256"
        }
      ],
      "name": "safeTransferFrom",
      "outputs": [],
      "stateMutability": "nonpayable",
      "type": "function"
    },
    {
      "inputs": [
        {
          "internalType": "address",
          "name": "from",
          "type": "address"
        },
        {
          "internalType": "address",
          "name": "to",
          "type": "address"
        },
        {
          "internalType": "uint256",
          "name": "tokenId",
          "type": "uint256"
        },
        {
          "internalType": "bytes",
          "name": "data",
          "type": "bytes"
        }
      ],
      "name": "safeTransferFrom",
      "outputs": [],
      "stateMutability": "nonpayable",
      "type": "function"
    },
    {
      "inputs": [
        {
          "internalType": "address",
          "name": "operator",
          "type": "address"
        },
        {
          "internalType": "bool",
          "name": "approved",
          "type": "bool"
        }
      ],
      "name": "setApprovalForAll",
      "outputs": [],
      "stateMutability": "nonpayable",
      "type": "function"
    },
    {
      "inputs": [
        {
          "internalType": "bytes4",
          "name": "interfaceId",
          "type": "bytes4"
        }
      ],
      "name": "supportsInterface",
      "outputs": [
        {
          "internalType": "bool",
          "name": "",
          "type": "bool"
        }
      ],
      "stateMutability": "view",
      "type": "function"
    },
    {
      "inputs": [],
      "name": "symbol",
      "outputs": [
        {
          "internalType": "string",
          "name": "",
          "type": "string"
        }
      ],
      "stateMutability": "view",
      "type": "function"
    },
    {
      "inputs": [
        {
          "internalType": "uint256",
          "name": "index",
          "type": "uint256"
        }
      ],
      "name": "tokenByIndex",
      "outputs": [
        {
          "internalType": "uint256",
          "name": "",
          "type": "uint256"
        }
      ],
      "stateMutability": "view",
      "type": "function"
    },
    {
      "inputs": [
        {
          "internalType": "address",
          "name": "owner",
          "type": "address"
        },
        {
          "internalType": "uint256",
          "name": "index",
          "type": "uint256"
        }
      ],
      "name": "tokenOfOwnerByIndex",
      "outputs": [
        {
          "internalType": "uint256",
          "name": "",
          "type": "uint256"
        }
      ],
      "stateMutability": "view",
      "type": "function"
    },
    {
      "inputs": [
        {
          "internalType": "uint256",
          "name": "tokenId",
          "type": "uint256"
        }
      ],
      "name": "tokenURI",
      "outputs": [
        {
          "internalType": "string",
          "name": "",
          "type": "string"
        }
      ],
      "stateMutability": "view",
      "type": "function"
    },
    {
      "inputs": [],
      "name": "totalSupply",
      "outputs": [
        {
          "internalType": "uint256",
          "name": "",
          "type": "uint256"
        }
      ],
      "stateMutability": "view",
      "type": "function"
    },
    {
      "inputs": [
        {
          "internalType": "address",
          "name": "from",
          "type": "address"
        },
        {
          "internalType": "address",
          "name": "to",
          "type": "address"
        },
        {
          "internalType": "uint256",
          "name": "tokenId",
          "type": "uint256"
        }
      ],
      "name": "transferFrom",
      "outputs": [],
      "stateMutability": "nonpayable",
      "type": "function"
    },
    {
      "inputs": [
        {
          "internalType": "address",
          "name": "to",
          "type": "address"
        },
        {
          "internalType": "uint256",
          "name": "tokenId",
          "type": "uint256"
        }
      ],
      "name": "transferNFT",
      "outputs": [],
      "stateMutability": "nonpayable",
      "type": "function"
    },
    {
      "inputs": [
        {
          "internalType": "address",
          "name": "newOwner",
          "type": "address"
        }
      ],
      "name": "transferOwnership",
      "outputs": [],
      "stateMutability": "nonpayable",
      "type": "function"
    },
    {
      "inputs": [
        {
          "internalType": "uint256",
          "name": "newPrice",
          "type": "uint256"
        }
      ],
      "name": "updateMintPrice",
      "outputs": [],
      "stateMutability": "nonpayable",
      "type": "function"
    },
    {
      "inputs": [],
      "name": "withdraw",
      "outputs": [],
      "stateMutability": "nonpayable",
      "type": "function"
    }
  ],
  "bytecode": "0x6080604052662386f26fc10000600e55612710600f556010805460ff191690553480156200002c57600080fd5b506040518060400160405280600c81526020016b4e465420506c6174666f726d60a01b8152506040518060400160405280600481526020016304e4654560e41b8152508160009081620000809190620001b2565b5060016200008f8282620001b2565b505050620000ac620000a6620000b760201b60201c565b620000bb565b6001600c556200027e565b3390565b600b80546001600160a01b038381166001600160a01b0319831681179093556040519116919082907f8be0079c531659141344cd1fd0a4f28419497f9722a3daafe3b4186f6b6457e090600090a35050565b634e487b7160e01b600052604160045260246000fd5b600181811c908216806200013857607f821691505b6020821081036200015957634e487b7160e01b600052602260045260246000fd5b50919050565b601f821115620001ad57600081815260208120601f850160051c81016020861015620001885750805b601f850160051c820191505b81811015620001a95782815560010162000194565b5050505b505050565b81516001600160401b03811115620001ce57620001ce6200010d565b620001e681620001df845462000123565b846200015f565b602080601f8311600181146200021e5760008415620002055750858301515b600019600386901b1c1916600185901b178555620001a9565b600085815260208120601f198616915b828110156200024f578886015182559484019460019091019084016200022e565b50858210156200026e5787850151600019600388901b60f8161c191681555b5050505050600190811b01905550565b612c95806200028e6000396000f3fe6080604052600436106101d75760003560e01c80636817c76c11610102578063a22cb46511610095578063e985e9c511610064578063e985e9c514610533578063f1dbaccb1461057c578063f2fde38b146105a9578063fb37e883146105c957600080fd5b8063a22cb465146104bd578063b88d4fde146104dd578063c87b56dd146104fd578063d5abeb011461051d57600080fd5b80638da5cb5b116100d15780638da5cb5b1461045057806394ab67fe1461046e57806395d89b411461048e5780639f1a3d9c146104a357600080fd5b80636817c76c146103f257806368ff65a71461040857806370a082311461041b578063715018a61461043b57600080fd5b80632f745c591161017a578063465670331161014957806346567033146103655780634f6ccce7146103925780635a559575146103b25780636352211e146103d257600080fd5b80632f745c59146102f0578063359803cd146103105780633ccfd60b1461033057806342842e0e1461034557600080fd5b8063081812fc116101b6578063081812fc14610255578063095ea7b31461028d57806318160ddd146102ad57806323b872dd146102d057600080fd5b8062728e46146101dc57806301ffc9a7146101fe57806306fdde0314610233575b600080fd5b3480156101e857600080fd5b506101fc6101f736600461248b565b6105dc565b005b34801561020a57600080fd5b5061021e6102193660046124ba565b610620565b60405190151581526020015b60405180910390f35b34801561023f57600080fd5b50610248610631565b60405161022a9190612527565b34801561026157600080fd5b5061027561027036600461248b565b6106c3565b6040516001600160a01b03909116815260200161022a565b34801561029957600080fd5b506101fc6102a8366004612551565b6106ea565b3480156102b957600080fd5b506102c2610804565b60405190815260200161022a565b3480156102dc57600080fd5b506101fc6102eb36600461257b565b610814565b3480156102fc57600080fd5b506102c261030b366004612551565b610845565b34801561031c57600080fd5b506101fc61032b3660046125c7565b6108db565b34801561033c57600080fd5b506101fc610924565b34801561035157600080fd5b506101fc61036036600461257b565b6109af565b34801561037157600080fd5b506103856103803660046125e2565b6109ca565b60405161022a91906125fd565b34801561039e57600080fd5b506102c26103ad36600461248b565b610a36565b3480156103be57600080fd5b506103856103cd3660046125e2565b610ac9565b3480156103de57600080fd5b506102756103ed36600461248b565b610b6b565b3480156103fe57600080fd5b506102c2600e5481565b610385610416366004612700565b610bcb565b34801561042757600080fd5b506102c26104363660046125e2565b610fb8565b34801561044757600080fd5b506101fc61103e565b34801561045c57600080fd5b50600b546001600160a01b0316610275565b34801561047a57600080fd5b506101fc610489366004612551565b611052565b34801561049a57600080fd5b5061024861117d565b3480156104af57600080fd5b5060105461021e9060ff1681565b3480156104c957600080fd5b506101fc6104d83660046127c3565b61118c565b3480156104e957600080fd5b506101fc6104f83660046127f6565b611197565b34801561050957600080fd5b5061024861051836600461248b565b6111cf565b34801561052957600080fd5b506102c2600f5481565b34801561053f57600080fd5b5061021e61054e366004612872565b6001600160a01b03918216600090815260056020908152604080832093909416825291909152205460ff1690565b34801561058857600080fd5b5061059c61059736600461248b565b6111da565b60405161022a919061289c565b3480156105b557600080fd5b506101fc6105c43660046125e2565b6112a1565b6102c26105d73660046128dd565b61131a565b6105e4611561565b600e8190556040518181527f66cbca4f3c64fecf1dcb9ce094abcf7f68c3450a1d4e3a8e917dd621edb4ebe0906020015b60405180910390a150565b600061062b826115bb565b92915050565b60606000805461064090612912565b80601f016020809104026020016040519081016040528092919081815260200182805461066c90612912565b80156106b95780601f1061068e576101008083540402835291602001916106b9565b820191906000526020600020905b81548152906001019060200180831161069c57829003601f168201915b5050505050905090565b60006106ce826115e0565b506000908152600460205260409020546001600160a01b031690565b60006106f582610b6b565b9050806001600160a01b0316836001600160a01b0316036107675760405162461bcd60e51b815260206004820152602160248201527f4552433732313a20617070726f76616c20746f2063757272656e74206f776e656044820152603960f91b60648201526084015b60405180910390fd5b336001600160a01b03821614806107835750610783813361054e565b6107f55760405162461bcd60e51b815260206004820152603d60248201527f4552433732313a20617070726f76652063616c6c6572206973206e6f7420746f60448201527f6b656e206f776e6572206f7220617070726f76656420666f7220616c6c000000606482015260840161075e565b6107ff838361163f565b505050565b600061080f600d5490565b905090565b61081e33826116ad565b61083a5760405162461bcd60e51b815260040161075e9061294c565b6107ff83838361172c565b600061085083610fb8565b82106108b25760405162461bcd60e51b815260206004820152602b60248201527f455243373231456e756d657261626c653a206f776e657220696e646578206f7560448201526a74206f6620626f756e647360a81b606482015260840161075e565b506001600160a01b03919091166000908152600760209081526040808320938352929052205490565b6108e3611561565b6010805460ff19168215159081179091556040519081527f6c5077b147ba33efb2320134a1363ca18ccbacd3e2eb73438a3d23b2d7b180ba90602001610615565b61092c611561565b47806109715760405162461bcd60e51b81526020600482015260146024820152734e6f2066756e647320746f20776974686472617760601b604482015260640161075e565b600b546040516001600160a01b039091169082156108fc029083906000818181858888f193505050501580156109ab573d6000803e3d6000fd5b5050565b6107ff83838360405180602001604052806000815250611197565b6001600160a01b038116600090815260126020908152604091829020805483518184028101840190945280845260609392830182828015610a2a57602002820191906000526020600020905b815481526020019060010190808311610a16575b50505050509050919050565b6000610a4160095490565b8210610aa45760405162461bcd60e51b815260206004820152602c60248201527f455243373231456e756d657261626c653a20676c6f62616c20696e646578206f60448201526b7574206f6620626f756e647360a01b606482015260840161075e565b60098281548110610ab757610ab7612999565b90600052602060002001549050919050565b60606000610ad683610fb8565b905060008167ffffffffffffffff811115610af357610af3612641565b604051908082528060200260200182016040528015610b1c578160200160208202803683370190505b50905060005b82811015610b6357610b348582610845565b828281518110610b4657610b46612999565b602090810291909101015280610b5b816129c5565b915050610b22565b509392505050565b6000818152600260205260408120546001600160a01b03168061062b5760405162461bcd60e51b8152602060048201526018602482015277115490cdcc8c4e881a5b9d985b1a59081d1bdad95b88125160421b604482015260640161075e565b60105460609060ff1615610c215760405162461bcd60e51b815260206004820152601b60248201527f4d696e74696e672069732063757272656e746c79207061757365640000000000604482015260640161075e565b610c2961189d565b6000825111610c6d5760405162461bcd60e51b815260206004820152601060248201526f139bc81554925cc81c1c9bdd9a59195960821b604482015260640161075e565b600a82511115610cbf5760405162461bcd60e51b815260206004820181905260248201527f43616e6e6f74206d696e74206d6f7265207468616e203130206174206f6e6365604482015260640161075e565b8151600e54610cce91906129de565b341015610d145760405162461bcd60e51b8152602060048201526014602482015273125b9cdd59999a58da595b9d081c185e5b595b9d60621b604482015260640161075e565b600f548251600d54610d2691906129f5565b1115610d745760405162461bcd60e51b815260206004820152601760248201527f576f756c6420657863656564206d617820737570706c79000000000000000000604482015260640161075e565b6000825167ffffffffffffffff811115610d9057610d90612641565b604051908082528060200260200182016040528015610db9578160200160208202803683370190505b50905060005b8351811015610f52576000848281518110610ddc57610ddc612999565b60200260200101515111610e2e5760405162461bcd60e51b8152602060048201526019602482015278546f6b656e205552492063616e6e6f7420626520656d70747960381b604482015260640161075e565b6000610e39600d5490565b9050610e49600d80546001019055565b610e5333826118f6565b610e7681868481518110610e6957610e69612999565b6020026020010151611910565b60008181526011602090815260408083208054600181810183559185528385200180546001600160a01b0319163390811790915584526012835290832080549182018155835291200181905582518190849084908110610ed857610ed8612999565b60200260200101818152505080336001600160a01b03167fd35bb95e09c04b219e35047ce7b7b300e3384264ef84a40456943dbc0fc17c14878581518110610f2257610f22612999565b6020026020010151604051610f379190612527565b60405180910390a35080610f4a816129c5565b915050610dbf565b5060008351600e54610f6491906129de565b905080341115610fa657336108fc610f7c8334612a08565b6040518115909202916000818181858888f19350505050158015610fa4573d6000803e3d6000fd5b505b509050610fb36001600c55565b919050565b60006001600160a01b0382166110225760405162461bcd60e51b815260206004820152602960248201527f4552433732313a2061646472657373207a65726f206973206e6f7420612076616044820152683634b21037bbb732b960b91b606482015260840161075e565b506001600160a01b031660009081526003602052604090205490565b611046611561565b61105060006119db565b565b61105c33826116ad565b6110a05760405162461bcd60e51b8152602060048201526015602482015274139bdd081bdddb995c881bdc88185c1c1c9bdd9959605a1b604482015260640161075e565b6001600160a01b0382166110f65760405162461bcd60e51b815260206004820152601f60248201527f43616e6e6f74207472616e7366657220746f207a65726f206164647265737300604482015260640161075e565b600061110182610b6b565b905061110e81848461172c565b6000828152601160209081526040808320805460018101825590845291832090910180546001600160a01b0319166001600160a01b0387811691821790925591518593918516917f209eb5082bc3bcbd509ae679a680b3bb2a11b77fea542a93e205020af76529fc91a4505050565b60606001805461064090612912565b6109ab338383611a2d565b6111a133836116ad565b6111bd5760405162461bcd60e51b815260040161075e9061294c565b6111c984848484611afb565b50505050565b606061062b82611b2e565b6000818152600260205260409020546060906001600160a01b03166112385760405162461bcd60e51b8152602060048201526014602482015273151bdad95b88191bd95cc81b9bdd08195e1a5cdd60621b604482015260640161075e565b60008281526011602090815260409182902080548351818402810184019094528084529091830182828015610a2a57602002820191906000526020600020905b81546001600160a01b031681526001909101906020018083116112785750505050509050919050565b6112a9611561565b6001600160a01b03811661130e5760405162461bcd60e51b815260206004820152602660248201527f4f776e61626c653a206e6577206f776e657220697320746865207a65726f206160448201526564647265737360d01b606482015260840161075e565b611317816119db565b50565b60105460009060ff16156113705760405162461bcd60e51b815260206004820152601b60248201527f4d696e74696e672069732063757272656e746c79207061757365640000000000604482015260640161075e565b61137861189d565b600e543410156113c15760405162461bcd60e51b8152602060048201526014602482015273125b9cdd59999a58da595b9d081c185e5b595b9d60621b604482015260640161075e565b600f54600d54106114095760405162461bcd60e51b815260206004820152601260248201527113585e081cdd5c1c1b1e481c995858da195960721b604482015260640161075e565b60008251116114565760405162461bcd60e51b8152602060048201526019602482015278546f6b656e205552492063616e6e6f7420626520656d70747960381b604482015260640161075e565b6000611461600d5490565b9050611471600d80546001019055565b61147b33826118f6565b6114858184611910565b60008181526011602090815260408083208054600181810183559185528385200180546001600160a01b03191633908117909155808552601284528285208054928301815585529290932090920183905590518291907fd35bb95e09c04b219e35047ce7b7b300e3384264ef84a40456943dbc0fc17c1490611508908790612527565b60405180910390a3600e5434111561155557600e5433906108fc9061152d9034612a08565b6040518115909202916000818181858888f19350505050158015610fa6573d6000803e3d6000fd5b9050610fb36001600c55565b600b546001600160a01b031633146110505760405162461bcd60e51b815260206004820181905260248201527f4f776e61626c653a2063616c6c6572206973206e6f7420746865206f776e6572604482015260640161075e565b60006001600160e01b0319821663780e9d6360e01b148061062b575061062b82611c36565b6000818152600260205260409020546001600160a01b03166113175760405162461bcd60e51b8152602060048201526018602482015277115490cdcc8c4e881a5b9d985b1a59081d1bdad95b88125160421b604482015260640161075e565b600081815260046020526040902080546001600160a01b0319166001600160a01b038416908117909155819061167482610b6b565b6001600160a01b03167f8c5be1e5ebec7d5bd14f71427d1e84f3dd0314c0f7b2291e5b200ac8c7c3b92560405160405180910390a45050565b6000806116b983610b6b565b9050806001600160a01b0316846001600160a01b0316148061170057506001600160a01b0380821660009081526005602090815260408083209388168352929052205460ff165b806117245750836001600160a01b0316611719846106c3565b6001600160a01b0316145b949350505050565b826001600160a01b031661173f82610b6b565b6001600160a01b0316146117655760405162461bcd60e51b815260040161075e90612a1b565b6001600160a01b0382166117c75760405162461bcd60e51b8152602060048201526024808201527f4552433732313a207472616e7366657220746f20746865207a65726f206164646044820152637265737360e01b606482015260840161075e565b6117d48383836001611c5b565b826001600160a01b03166117e782610b6b565b6001600160a01b03161461180d5760405162461bcd60e51b815260040161075e90612a1b565b600081815260046020908152604080832080546001600160a01b03199081169091556001600160a01b0387811680865260038552838620805460001901905590871680865283862080546001019055868652600290945282852080549092168417909155905184937fddf252ad1be2c89b69c2b068fc378daa952ba7f163c4a11628f55a4df523b3ef91a4505050565b6002600c54036118ef5760405162461bcd60e51b815260206004820152601f60248201527f5265656e7472616e637947756172643a207265656e7472616e742063616c6c00604482015260640161075e565b6002600c55565b6109ab828260405180602001604052806000815250611ccb565b6000828152600260205260409020546001600160a01b031661198b5760405162461bcd60e51b815260206004820152602e60248201527f45524337323155524953746f726167653a2055524920736574206f66206e6f6e60448201526d32bc34b9ba32b73a103a37b5b2b760911b606482015260840161075e565b60008281526006602052604090206119a38282612aae565b506040518281527ff8e1a15aba9398e019f0b49df1a4fde98ee17ae345cb5f6b5e2c27f5033e8ce79060200160405180910390a15050565b600b80546001600160a01b038381166001600160a01b0319831681179093556040519116919082907f8be0079c531659141344cd1fd0a4f28419497f9722a3daafe3b4186f6b6457e090600090a35050565b816001600160a01b0316836001600160a01b031603611a8e5760405162461bcd60e51b815260206004820152601960248201527f4552433732313a20617070726f766520746f2063616c6c657200000000000000604482015260640161075e565b6001600160a01b03838116600081815260056020908152604080832094871680845294825291829020805460ff191686151590811790915591519182527f17307eab39ab6107e8899845ad3d59bd9653f200f220920489ca2b5937696c31910160405180910390a3505050565b611b0684848461172c565b611b1284848484611cfe565b6111c95760405162461bcd60e51b815260040161075e90612b6e565b6060611b39826115e0565b60008281526006602052604081208054611b5290612912565b80601f0160208091040260200160405190810160405280929190818152602001828054611b7e90612912565b8015611bcb5780601f10611ba057610100808354040283529160200191611bcb565b820191906000526020600020905b815481529060010190602001808311611bae57829003601f168201915b505050505090506000611be960408051602081019091526000815290565b90508051600003611bfb575092915050565b815115611c2d578082604051602001611c15929190612bc0565b60405160208183030381529060405292505050919050565b61172484611dff565b60006001600160e01b03198216632483248360e11b148061062b575061062b82611e73565b611c6784848484611ec3565b6001600160a01b03841615801590611c8757506001600160a01b03831615155b156111c95760008281526011602090815260408220805460018101825590835291200180546001600160a01b0385166001600160a01b031990911617905550505050565b611cd58383611ff7565b611ce26000848484611cfe565b6107ff5760405162461bcd60e51b815260040161075e90612b6e565b60006001600160a01b0384163b15611df457604051630a85bd0160e11b81526001600160a01b0385169063150b7a0290611d42903390899088908890600401612bef565b6020604051808303816000875af1925050508015611d7d575060408051601f3d908101601f19168201909252611d7a91810190612c2c565b60015b611dda573d808015611dab576040519150601f19603f3d011682016040523d82523d6000602084013e611db0565b606091505b508051600003611dd25760405162461bcd60e51b815260040161075e90612b6e565b805181602001fd5b6001600160e01b031916630a85bd0160e11b149050611724565b506001949350505050565b6060611e0a826115e0565b6000611e2160408051602081019091526000815290565b90506000815111611e415760405180602001604052806000815250611e6c565b80611e4b84612190565b604051602001611e5c929190612bc0565b6040516020818303038152906040525b9392505050565b60006001600160e01b031982166380ac58cd60e01b1480611ea457506001600160e01b03198216635b5e139f60e01b145b8061062b57506301ffc9a760e01b6001600160e01b031983161461062b565b6001811115611f325760405162461bcd60e51b815260206004820152603560248201527f455243373231456e756d657261626c653a20636f6e7365637574697665207472604482015274185b9cd9995c9cc81b9bdd081cdd5c1c1bdc9d1959605a1b606482015260840161075e565b816001600160a01b038516611f8e57611f8981600980546000838152600a60205260408120829055600182018355919091527f6e1540171b6c0c960b71a7020d9f60077f6af931a8bbf590da0223dacf75c7af0155565b611fb1565b836001600160a01b0316856001600160a01b031614611fb157611fb18582612223565b6001600160a01b038416611fcd57611fc8816122c0565b611ff0565b846001600160a01b0316846001600160a01b031614611ff057611ff0848261236f565b5050505050565b6001600160a01b03821661204d5760405162461bcd60e51b815260206004820181905260248201527f4552433732313a206d696e7420746f20746865207a65726f2061646472657373604482015260640161075e565b6000818152600260205260409020546001600160a01b0316156120b25760405162461bcd60e51b815260206004820152601c60248201527f4552433732313a20746f6b656e20616c7265616479206d696e74656400000000604482015260640161075e565b6120c0600083836001611c5b565b6000818152600260205260409020546001600160a01b0316156121255760405162461bcd60e51b815260206004820152601c60248201527f4552433732313a20746f6b656e20616c7265616479206d696e74656400000000604482015260640161075e565b6001600160a01b038216600081815260036020908152604080832080546001019055848352600290915280822080546001600160a01b0319168417905551839291907fddf252ad1be2c89b69c2b068fc378daa952ba7f163c4a11628f55a4df523b3ef908290a45050565b6060600061219d836123b3565b600101905060008167ffffffffffffffff8111156121bd576121bd612641565b6040519080825280601f01601f1916602001820160405280156121e7576020820181803683370190505b5090508181016020015b600019016f181899199a1a9b1b9c1cb0b131b232b360811b600a86061a8153600a85049450846121f157509392505050565b6000600161223084610fb8565b61223a9190612a08565b60008381526008602052604090205490915080821461228d576001600160a01b03841660009081526007602090815260408083208584528252808320548484528184208190558352600890915290208190555b5060009182526008602090815260408084208490556001600160a01b039094168352600781528383209183525290812055565b6009546000906122d290600190612a08565b6000838152600a6020526040812054600980549394509092849081106122fa576122fa612999565b90600052602060002001549050806009838154811061231b5761231b612999565b6000918252602080832090910192909255828152600a9091526040808220849055858252812055600980548061235357612353612c49565b6001900381819060005260206000200160009055905550505050565b600061237a83610fb8565b6001600160a01b039093166000908152600760209081526040808320868452825280832085905593825260089052919091209190915550565b60008072184f03e93ff9f4daa797ed6e38ed64bf6a1f0160401b83106123f25772184f03e93ff9f4daa797ed6e38ed64bf6a1f0160401b830492506040015b6d04ee2d6d415b85acef8100000000831061241e576d04ee2d6d415b85acef8100000000830492506020015b662386f26fc10000831061243c57662386f26fc10000830492506010015b6305f5e1008310612454576305f5e100830492506008015b612710831061246857612710830492506004015b6064831061247a576064830492506002015b600a831061062b5760010192915050565b60006020828403121561249d57600080fd5b5035919050565b6001600160e01b03198116811461131757600080fd5b6000602082840312156124cc57600080fd5b8135611e6c816124a4565b60005b838110156124f25781810151838201526020016124da565b50506000910152565b600081518084526125138160208601602086016124d7565b601f01601f19169290920160200192915050565b602081526000611e6c60208301846124fb565b80356001600160a01b0381168114610fb357600080fd5b6000806040838503121561256457600080fd5b61256d8361253a565b946020939093013593505050565b60008060006060848603121561259057600080fd5b6125998461253a565b92506125a76020850161253a565b9150604084013590509250925092565b80358015158114610fb357600080fd5b6000602082840312156125d957600080fd5b611e6c826125b7565b6000602082840312156125f457600080fd5b611e6c8261253a565b6020808252825182820181905260009190848201906040850190845b8181101561263557835183529284019291840191600101612619565b50909695505050505050565b634e487b7160e01b600052604160045260246000fd5b604051601f8201601f1916810167ffffffffffffffff8111828210171561268057612680612641565b604052919050565b600067ffffffffffffffff8311156126a2576126a2612641565b6126b5601f8401601f1916602001612657565b90508281528383830111156126c957600080fd5b828260208301376000602084830101529392505050565b600082601f8301126126f157600080fd5b611e6c83833560208501612688565b6000602080838503121561271357600080fd5b823567ffffffffffffffff8082111561272b57600080fd5b818501915085601f83011261273f57600080fd5b81358181111561275157612751612641565b8060051b612760858201612657565b918252838101850191858101908984111561277a57600080fd5b86860192505b838310156127b6578235858111156127985760008081fd5b6127a68b89838a01016126e0565b8352509186019190860190612780565b9998505050505050505050565b600080604083850312156127d657600080fd5b6127df8361253a565b91506127ed602084016125b7565b90509250929050565b6000806000806080858703121561280c57600080fd5b6128158561253a565b93506128236020860161253a565b925060408501359150606085013567ffffffffffffffff81111561284657600080fd5b8501601f8101871361285757600080fd5b61286687823560208401612688565b91505092959194509250565b6000806040838503121561288557600080fd5b61288e8361253a565b91506127ed6020840161253a565b6020808252825182820181905260009190848201906040850190845b818110156126355783516001600160a01b0316835292840192918401916001016128b8565b6000602082840312156128ef57600080fd5b813567ffffffffffffffff81111561290657600080fd5b611724848285016126e0565b600181811c9082168061292657607f821691505b60208210810361294657634e487b7160e01b600052602260045260246000fd5b50919050565b6020808252602d908201527f4552433732313a2063616c6c6572206973206e6f7420746f6b656e206f776e6560408201526c1c881bdc88185c1c1c9bdd9959609a1b606082015260800190565b634e487b7160e01b600052603260045260246000fd5b634e487b7160e01b600052601160045260246000fd5b6000600182016129d7576129d76129af565b5060010190565b808202811582820484141761062b5761062b6129af565b8082018082111561062b5761062b6129af565b8181038181111561062b5761062b6129af565b60208082526025908201527f4552433732313a207472616e736665722066726f6d20696e636f72726563742060408201526437bbb732b960d91b606082015260800190565b601f8211156107ff57600081815260208120601f850160051c81016020861015612a875750805b601f850160051c820191505b81811015612aa657828155600101612a93565b505050505050565b815167ffffffffffffffff811115612ac857612ac8612641565b612adc81612ad68454612912565b84612a60565b602080601f831160018114612b115760008415612af95750858301515b600019600386901b1c1916600185901b178555612aa6565b600085815260208120601f198616915b82811015612b4057888601518255948401946001909101908401612b21565b5085821015612b5e5787850151600019600388901b60f8161c191681555b5050505050600190811b01905550565b60208082526032908201527f4552433732313a207472616e7366657220746f206e6f6e20455243373231526560408201527131b2b4bb32b91034b6b83632b6b2b73a32b960711b606082015260800190565b60008351612bd28184602088016124d7565b835190830190612be68183602088016124d7565b01949350505050565b6001600160a01b0385811682528416602082015260408101839052608060608201819052600090612c22908301846124fb565b9695505050505050565b600060208284031215612c3e57600080fd5b8151611e6c816124a4565b634e487b7160e01b600052603160045260246000fdfea26469706673582212209989ecad9fd29d23c2760dc3553c5fce626cb4034fc70235d660eb12dd656d7364736f6c63430008110033",
  "linkReferences": {},
  "deployedLinkReferences": {}
}